8=FIX.4.4|9=76|35=A|34=1|49=CLIENT1|52=20240618-11:35:11.019|56=EXECUTOR|98=0|108=30|141=Y|10=140|8=FIX.4.4|9=58|35=0|34=2|49=CLIENT1|52=20240618-11:35:41.340|56=EXECUTOR|10=054|